:020000040804EE
:100000000000022015640408956C0408816C040843
:10001000996C04089D6C0408A16C040800000000A1
:10002000000000000000000000000000E1EB0408F8
:10003000A56C04080000000071EC0408FDDE040853
:1000400011640408116404081164040811640408AC
:10005000116404081164040811640408116404089C
:10006000116404081164040811640408116404088C
:10007000D9EB05081164040811640408116404082C
:10008000116404081164040871D705081164040898
:10009000116404081164040811640408EDDF050804
:1000A000116404081164040811640408116404084C
:1000B00015E7050821E705082DE705081164040880
:1000C00011640408116404081164040801E50508BA
:1000D0001164040819EA050811640408ADEA05086A
:1000E000F5DF0508116404081164040811640408AC
:1000F00011640408116404081164040811640408FC
:1001000011640408116404081164040811640408EB
:1001100011640408116404081164040839E705082F
:10012000D9D70508E5EB0508F1EB0508E5D7050883
:1001300011640408B5DE050811640408116404089C
:1001400011640408116404081164040811640408AB
:1001500011640408116404081164040841EB0508E3
:10016000116404081164040811640408116404088B
:1001700011640408116404081164040800000000FC
:08018000116404081164040875
:1001900081F0004102E000BF83F0004330B54FEA38
:1001A00041044FEA430594EA050F08BF90EA020FA5
:1001B0001FBF54EA000C55EA020C7FEA645C7FEA38
:1001C000655C00F0E2804FEA5454D4EB5555B8BF5B
:1001D0006D420CDD2C4480EA020281EA030382EACC
:1001E000000083EA010180EA020281EA0303362D5E
:1001F00088BF30BD11F0004F4FEA01314FF4801C31
:100200004CEA113102D0404261EB410113F0004F42
:100210004FEA03334CEA133302D0524263EB4303F9
:1002200094EA050F00F0A780A4F10104D5F1200E97
:100230000DDB02FA0EFC22FA05F2801841F10001F2
:1002400003FA0EF2801843FA05F359410EE0A5F1C6
:1002500020050EF1200E012A03FA0EFC28BF4CF0F7
:10026000020C43FA05F3C01851EBE37101F00045AD
:1002700007D54FF0000EDCF1000C7EEB00006EEBBA
:100280000101B1F5801F1BD3B1F5001F0CD3490844
:100290005FEA30004FEA3C0C04F101044FEA44529B
:1002A00012F5800F80F09A80BCF1004F08BF5FEA22
:1002B000500C50F1000041EB045141EA050130BD02
:1002C0005FEA4C0C404141EB0101013C28BFB1F514
:1002D000801FE9D291F0000F04BF01460020B1FA5F
:1002E00081F308BF2033A3F10B03B3F120020CDA32
:1002F0000C3208DD02F1140CC2F10C0201FA0CF010
:1003000021FA02F10CE002F11402D8BFC2F1200C74
:1003100001FA02F120FA0CFCDCBF41EA0C0190402A
:10032000E41AA2BF01EB0451294330BD6FEA040473
:100330001F3C1CDA0C340EDC04F11404C4F120025E
:1003400020FA04F001FA02F340EA030021FA04F370
:1003500045EA030130BDC4F10C04C4F1200220FAC7
:1003600002F001FA04F340EA0300294630BD21FA05
:1003700004F0294630BD94F0000F83F4801306BFCB
:1003800081F480110134013D4EE77FEA645C18BFBF
:100390007FEA655C29D094EA050F08BF90EA020F56
:1003A00005D054EA000C04BF1946104630BD91EA4E
:1003B000030F1EBF0021002030BD5FEA545C05D151
:1003C0004000494128BF41F0004130BD14F5800490
:1003D0003CBF01F5801130BD01F0004545F0FE4104
:1003E00041F470014FF0000030BD7FEA645C1ABF39
:1003F000194610467FEA655C1CBF0B46024650EA70
:10040000013406BF52EA033591EA030F41F400219B
:1004100030BD00BF90F0000F04BF0021704730B521
:100420004FF4806404F132044FF000054FF00001F6
:1004300050E700BF90F0000F04BF0021704730B5B7
:100440004FF4806404F1320410F0004548BF40428C
:100450004FF000013EE700BF42004FEAE2014FEAE1
:1004600031014FEA02701FBF12F07F4393F07F4FBC
:1004700081F06051704732F07F4208BF704793F0BF
:100480007F4F04BF41F40021704730B54FF46074D2
:1004900001F0004521F000411CE700BF50EA0102D5
:1004A00008BF704730B54FF000050AE050EA01027E
:1004B00008BF704730B511F0004502D5404261EBEE
:1004C00041014FF4806404F132045FEA915C3FF42F
:1004D000D8AE4FF003025FEADC0C18BF03325FEACC
:1004E000DC0C18BF033202EBDC02C2F1200300FA7D
:1004F00003FC20FA02F001FA03FE40EA0E0021FAA2
:1005000002F11444BDE600BF4FF0FF3C06E000BF1F
:100510004FF0010C02E000BF4FF0010C4DF804CD8C
:100520004FEA410C7FEA6C5C4FEA430C18BF7FEA4C
:100530006C5C1BD001B050EA410C0CBF52EA430C7A
:1005400091EA030F02BF90EA020F0020704710F1FA
:10055000000F91EA030F58BF994208BF90422CBF89
:10056000D8176FEAE37040F0010070474FEA410C82
:100570007FEA6C5C02D150EA013C07D14FEA430CA0
:100580007FEA6C5CD6D152EA033CD3D05DF8040B11
:10059000704700BF8446104662468C461946634643
:1005A00000E000BF01B5FFF7B7FF002848BF10F11A
:1005B000000F01BD4DF808EDFFF7F4FF0CBF01205F
:1005C00000205DF808FB00BF4DF808EDFFF7EAFFDB
:1005D00034BF012000205DF808FB00BF4DF808ED96
:1005E000FFF7E0FF94BF012000205DF808FB00BF8B
:1005F0004DF808EDFFF7CEFF94BF012000205DF815
:1006000008FB00BF4DF808EDFFF7C4FF34BF012021
:1006100000205DF808FB00BF4FEA410C7FEA6C5CEC
:1006200002D150EA013C0AD14FEA430C7FEA6C5CEC
:1006300002D152EA033C02D14FF0000070474FF064
:10064000010070474FEA410212F5001215D211D590
:100650006FF47873B3EB625212D94FEAC12343F0BF
:10066000004343EA505311F0004F23FA02F018BF41
:10067000404270474FF00000704750EA013005D10A
:1006800011F0004008BF6FF0004070474FF00000CD
:10069000704700BF53B94AB9002908BF00281CBFE2
:1006A0004FF0FF314FF0FF3000F00CB8ADF1080C07
:1006B0006DE904CE1EF0A2FADDF804E0DDE90223C4
:1006C00004B07047704700BF000000000000000049
:1006D00001F0FF01102A2BDB10F0070F08D010F8F3
:1006E000013B013A8B422DD010F0070F42B3F6D1F7
:1006F000F0B441EA012141EA014122F007047FF010
:1007000000070023F0E80256083C85EA010586EA66
:10071000010685FA47F5A3FA87F586FA47F6A5FAA2
:1007200087F68EB9EED1F0BC01F0FF0102F00702AE
:1007300032B110F8013B013A83EA010313B1F8D159
:100740000020704701387047002D06BF354603383A
:10075000073815F0010F07D1013015F4807F02BF73
:10076000013015F4C03F0130F0BC0138704700BFC4
:10077000034613F8012B002AFBD1181A01387047E1
:1007800070B54FF0FF0C4CF4E06C1CEA11541DBF27
:100790001CEA135594EA0C0F95EA0C0F00F0DEF8F2
:1007A0002C4481EA030621EA4C5123EA4C5350EAD7
:1007B000013518BF52EA033541F4801143F4801328
:1007C00038D0A0FB02CE4FF00005E1FB02E506F0B9
:1007D0000042E0FB03E54FF00006E1FB03569CF00E
:1007E000000F18BF4EF0010EA4F1FF04B6F5007F14
:1007F00064F5407404D25FEA4E0E6D4146EB060686
:1008000042EAC62141EA55514FEAC52040EA5E500E
:100810004FEACE2EB4F1FD0C88BFBCF5E06F1ED8B8
:10082000BEF1004F08BF5FEA500E50F1000041EBEF
:10083000045170BD06F0004646EA010140EA02009C
:1008400081EA0301B4EB5C04C2BFD4EB0C0541EABE
:10085000045170BD41F480114FF0000E013C00F3D3
:10086000AB8014F1360FDEBF002001F0004170BDF7
:10087000C4F10004203C35DA0C341BDC04F1140410
:10088000C4F1200500FA05F320FA04F001FA05F29C
:1008900040EA020001F0004221F0004110EBD37069
:1008A00021FA04F642EB06015EEA430E08BF20EA95
:1008B000D37070BDC4F10C04C4F1200500FA04F338
:1008C00020FA05F001FA04F240EA020001F00041CA
:1008D00010EBD37041F100015EEA430E08BF20EA3D
:1008E000D37070BDC4F1200500FA05F24EEA020E85
:1008F00020FA04F301FA05F243EA020321FA04F0B4
:1009000001F0004121FA04F220EA020000EBD3706A
:100910005EEA430E08BF20EAD37070BD94F0000F6A
:100920000FD101F00046400041EB010111F4801F9E
:1009300008BF013CF7D041EA060195F0000F18BF4F
:10094000704703F00046520043EB030313F4801F8B
:1009500008BF013DF7D043EA0603704794EA0C0F45
:100960000CEA135518BF95EA0C0F0CD050EA41065B
:1009700018BF52EA4306D1D181EA030101F00041D8
:100980004FF0000070BD50EA410606BF1046194600
:1009900052EA430619D094EA0C0F02D150EA01360C
:1009A00013D195EA0C0F05D152EA03361CBF10464D
:1009B00019460AD181EA030101F0004141F0FE41EC
:1009C00041F470014FF0000070BD41F0FE4141F470
:1009D000780170BD70B54FF0FF0C4CF4E06C1CEA70
:1009E00011541DBF1CEA135594EA0C0F95EA0C0F25
:1009F00000F0A7F8A4EB050481EA030E52EA0335E0
:100A00004FEA013100F088804FEA03334FF0805500
:100A100045EA131343EA12634FEA022245EA11152D
:100A200045EA10654FEA00260EF000419D4208BFDE
:100A3000964244F1FD0404F5407402D25B084FEA8B
:100A40003202B61A65EB03055B084FEA32024FF437
:100A500080104FF4002CB6EB020E75EB030E22BF94
:100A6000B61A754640EA0C005B084FEA3202B6EB54
:100A7000020E75EB030E22BFB61A754640EA5C0003
:100A80005B084FEA3202B6EB020E75EB030E22BF93
:100A9000B61A754640EA9C005B084FEA3202B6EB94
:100AA000020E75EB030E22BFB61A754640EADC0053
:100AB00055EA060E18D04FEA051545EA16754FEAB5
:100AC00006164FEAC30343EA52734FEAC2025FEAD3
:100AD0001C1CC0D111F4801F0BD141EA00014FF062
:100AE00000004FF0004CB6E711F4801F04BF014333
:100AF0000020B4F1FD0C88BFBCF5E06F3FF6AFAE4F
:100B0000B5EB030C04BFB6EB020C5FEA500C50F1DE
:100B1000000041EB045170BD0EF0004E4EEA113161
:100B200014EB5C04C2BFD4EB0C0541EA045170BD68
:100B300041F480114FF0000E013C90E645EA060EAC
:100B40008DE60CEA135594EA0C0F08BF95EA0C0FDA
:100B50003FF43BAF94EA0C0F0AD150EA01347FF422
:100B600034AF95EA0C0F7FF425AF104619462CE7F9
:100B700095EA0C0F06D152EA03353FF4FDAE10465C
:100B8000194622E750EA410618BF52EA43067FF4AD
:100B9000C5AE50EA41047FF40DAF52EA43057FF43D
:100BA000EBAE12E70348044B834202D0034B03B180
:100BB000184770478C0300208C03002000000000C1
:100BC0000548064B1B1AD90F01EBA301491002D0AF
:100BD000034B03B1184770478C0300208C0300209F
:100BE0000000000010B5064C237843B9FFF7DAFF88
:100BF000044B13B10448AFF300800123237010BDF0
:100C00009003002000000000981D060808B5054B61
:100C10001BB105490548AFF30080BDE80840FFF768
:100C2000CFBF00BF0000000094030020981D0608FD
:100C300010B5184A044682B0062102200DF06AFC65
:100C4000E06028B32078214604F002F91249A06838
:100C500022461DF077FEA28A2169A0681DF07AFE67
:100C6000E0684FF0FF33002269460DF0C5FC002814
:100C7000F6D19DF80020E08ABDF80230216900FB22
:100C800002331944BDF80420204604F089F8E7E750
:100C90000DF020FA486306089D0C040800B513699E
:100CA000B2F816E083B0A0EB030C0023ADF80410FB
:100CB000D068BCFBFEF11A460EFB11CC8DF800107B
:100CC00069468DF80130ADF802C00DF061FC03B04B
:100CD00000BD00BF806864231DF010BE10B50A4C33
:100CE0000A4B636001201DF0FDFDA060002006F0AE
:100CF00001FB074B074AC4E9040321460648BDE847
:100D000010400DF073B900BF00000020B81D0608A8
:100D10000005800224630608310C04080020704797
:100D200010B5184A044682B0062102200DF0F2FBED
:100D3000E06028B32078214604F08AF81249A068C0
:100D400022461DF0FFFDA28A2169A0681DF002FE67
:100D5000E0684FF0FF33002269460DF04DFC00289B
:100D6000F6D19DF80020E08ABDF80230216900FB31
:100D700002331944BDF80420204604F011F8E7E7D7
:100D80000DF0A8F9646306088D0D040800B5136919
:100D9000B2F816E083B0A0EB030C0023ADF804100A
:100DA000D068BCFBFEF11A460EFB11CC8DF800108A
:100DB00069468DF80130ADF802C00DF0E9FB03B0D3
:100DC00000BD00BF806864231DF098BD10B5114CB4
:100DD000114B8AB0002063601DF084FDA06006F016
:100DE000E7FA0E4B2022C4E90403002102A81FF0F9
:100DF0007EF8DFF830E00A48CDF804E04FF4806C6C
:100E0000182301AA2146CDE906C30DF0EFF80AB078
:100E100010BD00BF080400206063060800058002C2
:100E2000210D0408D81D0608944603460A469CE88E
:100E300003004FF0010C83E803009A6083F801C0BF
:100E400072B1526862B1517A41F008014FF4FA6010
:100E500051720321C2E9260142F2107CC2F894C00B
:100E60001946032003F0F4BF10B5044684B01E48B1
:100E70001E4A2146FFF7D8FF02A9204611F00AF8C2
:100E8000B8B90DF10602029803A912F0EFFCBDF803
:100E90000620012A1AD8029812F01AFD0028F0DA6A
:100EA000029812F09DFC02A9204610F0F3FF0028E2
:100EB000E7D00D4B002103205960597003F0C8FFA3
:100EC0000B4B18680DF0E8FA0DF004F90399064889
:100ED00003F066FF029812F0FBFC0028D1DA0298BA
:100EE00012F07EFCDFE700BF7C0400202C00002015
:100EF00090040020F0B52D4E326883B0002A4FD008
:100F00002B4D08E005301CD0204610F0ABFE4FF40E
:100F10007A700DF0E5F800221146102010F032FE34
:100F200004460028F3D090F820302A8A43F00203C8
:100F300080F8203001A9EB68019310F0E9FE002849
:100F4000E0D10DF04BF800F57A6701E00DF0C8F83C
:100F50000DF044F8C31B002B4FF4FA70D4DA637819
:100F6000032BF3D06368002BCED094F8203023F00D
:100F7000020384F82030306800210DF05BFA00286D
:100F8000F9D00C4A0C4821460DF030F820B13068F9
:100F90004FF0FF310DF04EFA204611F0DFF8B3E7C5
:100FA000114601200DF0E4F93060A9E7900400201B
:100FB00018000020A0630608690E040800B585B07B
:100FC0000023806800930123039211F04BF8039AE9
:100FD00000280CBF10464FF0FF3005B000BD00BF29
:100FE000014B1880704700BF34000020014B188867
:100FF000704700BF340000202DE9F047DFF808916A
:101000003E4CDFF808813E4F84B00022114610208C
:1010100010F0B8FD064648B1B9F80020394910F083
:1010200045FE054638B1304610F01CFE4FF4FA700C
:101030000DF056F8E9E7FF21304610F09BFE01A9BC
:101040003046019510F0BCFE002843D1019B002BD7
:1010500040D098E803004FF0010A84E803002146DD
:101060000220A36084F801A003F0F2FE0198C7F803
:1010700000A002A910F00EFFC0B90DF10202029803
:1010800003A912F0F3FBBDF80220012A204629D85B
:10109000029812F01DFC0028EFDA029812F0A0FB73
:1010A000019802A910F0F6FE0028E6D000210220E7
:1010B0003D606560657003F0CBFE019811F04EF85D
:1010C000019810F0CFFD01A93046019510F078FE8F
:1010D0000028BBD04FF4FA700DF002F8304610F043
:1010E000C1FD92E7039903F05BFE029812F0F0FB5A
:1010F0000028C2DA029812F073FBD1E798040020AE
:1011000094040020B0BF07083400002038000020FD
:1011100070B584B006460191144612F055FB019952
:10112000A0B12246054612F073FBD6F80E20738A52
:10113000B0680392294603AA10F066FF06462846C7
:1011400012F04EFB16B9204604B070BD4FF0FF30D0
:10115000FAE700BF30B5294B294C054693E8030058
:1011600085B0012284E8030042F21B73214604206B
:101170006270A560A38103F06BFE02A9284610F0FF
:1011800089FEB0B90DF10602029803A912F06EFBB8
:10119000BDF806200298CAB912F09AFB0028F1DACD
:1011A000029812F01DFB02A9284610F073FE0028D9
:1011B000E8D000210420C4E90111617003F048FE69
:1011C000104B18680DF068F90CF084FF037AA373D4
:1011D000437AE373837A2374C37A637483890399AC
:1011E0006382204603F0DCFD029812F071FB0028B8
:1011F000C8DA029812F0F4FAD5E700BF44000020E4
:10120000E0040020F404002030B5294B294C0546A9
:1012100093E80300284B85B01B88A56084E8030091
:101220000122214607206270A38103F011FE02A96A
:10123000284610F02FFEB0B90DF10602029803A95E
:1012400012F014FBBDF806200298CAB912F040FB58
:101250000028F1DA029812F0C3FA02A9284610F029
:1012600019FE0028E8D000210720C4E901116170AF
:1012700003F0EEFD114B18680DF00EF90CF02AFF8B
:10128000037AA373437AE373837A2374C37A637410
:10129000838903996382204603F082FD029812F04D
:1012A00017FB0028C8DA029812F09AFAD5E700BFB7
:1012B00074640608C804002042000020DC040020FA
:1012C00030B5294B294C054693E80300284B85B0DF
:1012D0001B88A56084E80300012221460820627073
:1012E000A38103F0B5FD02A9284610F0D3FDB0B9E3
:1012F0000DF10602029803A912F0B8FABDF8062013
:101300000298CAB912F0E4FA0028F1DA029812F051
:1013100067FA02A9284610F0BDFD0028E8D0002198
:101320000820C4E90111617003F092FD114B1868A7
:101330000DF0B2F80CF0CEFE037AA373437AE37398
:10134000837A2374C37A6374838903996382204602
:1013500003F026FD029812F0BBFA0028C8DA0298C2
:1013600012F03EFAD5E700BF20640608A80400206A
:1013700040000020BC04002020B9034B186808B1CD
:101380000DF08AB8704700BFF404002020B9034B69
:10139000186808B10DF080B8704700BFDC04002069
:1013A00020B9034B186808B10DF076B8704700BF3C
:1013B000BC04002070B584B006460191144612F0BA
:1013C00003FA0199A0B12246054612F021FAD6F897
:1013D0000E20738AB0680392294603AA10F014FE07
:1013E0000646284612F0FCF916B9204604B070BD36
:1013F0004FF0FF30FAE700BF70B584B006460191A8
:10140000144612F0E1F90199A0B12246054612F006
:10141000FFF9D6F80E20738AB0680392294603AA12
:1014200010F0F2FD0646284612F0DAF916B9204609
:1014300004B070BD4FF0FF30FAE700BF42F21B70FE
:10144000704700BF70B51E4E3268002A31D01D486B
:101450001CF024FF06E0204610F004FC4FF4FA6074
:101460000CF03EFE00221146202010F08BFB0446BB
:101470000028F3D0456814496B7A43F0200342F208
:101480001B726B7210F012FC0028E4D1306800214E
:101490000CF0D0FF0028F9D00C4A0D4821460CF082
:1014A000A5FD0028D7D030684FF0FF310CF0C2FF07
:1014B000D1E7114601200CF05BFF3060C7E700BFA9
:1014C000F404002079130408B0BF0708CC640608B0
:1014D00055110408014B1888704700BF42000020D6
:1014E000F0B5264E326887B0002A41D02448254DF9
:1014F0001CF0D4FE21E0059B4FF6FE71581E44F609
:101500008762884288BF13460022114620202B8024
:1015100010F038FB044660B147682A887B7A1A4984
:1015200043F020037B7210F0C1FB70B1204610F035
:1015300099FB4FF4FA600CF0D3FD01A800F018F904
:101540000028D8D044F68763DEE7306800210CF02D
:1015500071FF0028F9D00D4A0D4821460CF046FDD8
:101560000028E3D030684FF0FF310CF063FFDDE777
:10157000114601200CF0FCFE3060B7E7DC040020CF
:101580008D13040842000020B0BF070880640608DD
:1015900009120408014B1888704700BF4000002062
:1015A000054B1B78013BDBB2032B9ABF034A52F871
:1015B00023000348704700BFC6040020EC63060800
:1015C000281E06082DE9F04FDFF87C91D9F800209D
:1015D00089B0002A00F096804E484F4FDFF86CB17A
:1015E0004E4E4F4DDFF868A11CF058FE03A800F0E6
:1015F000BFF8044600283DD1069A4FF6FE73511EEF
:10160000994237D893B242F21B718B42BBF800C0AB
:101610003B8041D09C453FD002460146202010F03F
:10162000B1FA8046002846D041683A884B7A43F0A8
:1016300020034B723B4910F039FB3A8803460028DF
:1016400040D02988042091423070AAF8003004D09C
:1016500035492A8020461CF055F8404610F002FB20
:101660004FF4FA600CF03CFD03A800F081F804464A
:101670000028C1D0022333702B8842F238529342A3
:101680003A8004D029492A8000201CF03BF84FF40E
:10169000FA600CF025FDA9E72988032099423070F3
:1016A000F5D02B802249CDF800C042F21B730020F8
:1016B0001CF028F8EBE7042333704FF6FF73AAF809
:1016C0000030E4E71B492880012333700B680133A5
:1016D0000B60194B19491CF015F8D9F800000021CE
:1016E0000CF0A8FE0028F8D0154A164841460CF028
:1016F0007DFC0028B1D0D9F800004FF0FF310CF08C
:1017000099FEAAE7114601200CF032FEC9F800004C
:1017100062E700BFA113040840000020C6040020B7
:10172000A4040020B0BF0708041F0608401E0608D6
:10173000801E0608C0040020C01E0608C81E060839
:101740002C640608C1120408BC04002042000020DA
:10175000C4040020014B024A1A6070474C0000206C
:10176000DC6A0608014948221EF01BBC0040000844
:1017700010B592B048221249044668461EF011FC8A
:10178000104B009A9A4203D04FF0FF3012B010BDB8
:101790001BF0F6FF442269461BF0F6FF119B9842AE
:1017A000F2D10DF1300CBCE80F002060DCF8000035
:1017B000206100206160A260E36012B010BD00BF34
:1017C000004000082107000DF0B599B006460D460F
:1017D00014463749482206A81F461EF0E2FB0DF1C9
:1017E000480EBEE80F000DF1040CACE80F00DEF867
:1017F0000030304ACCF80030069B934208D11BF0F1
:10180000BFFF442206A91BF0BFFF179B984233D0AD
:101810009FED257B2822002108A88DED067B1EF078
:1018200066FB33682A68129323681597CDE9132362
:101830001E9B16934FF0FF3309931BF0A1FF1E4C24
:10184000442206A91BF0A0FF2368179033B3DB687E
:1018500023B3002211462046984700280ADB23685C
:10186000E3B19D68D5B1482306AA00212046A847C8
:1018700000EAE07019B0F0BD1E9B2A681693336829
:10188000129313922368159701A912A81422149396
:101890001EF004FB0028D0D119B0F0BD4FF0FF308E
:1018A000E8E700BFAFF300802107000D0000000053
:1018B000004000082107000D4C00002070B59AB0D0
:1018C00004465849482208A81EF06BFB002C00F083
:1018D00095802046FEF74CFF1F2888BF024600F285
:1018E0008F800DF1300EBEE80F00EC46ACE80F0023
:1018F0009EE80F004C4E089DB5428CE80F0008D1C1
:101900001BF03EFF442208A91BF03EFF199B9842A2
:1019100056D04422002109A81EF0E9FA424A434960
:1019200008924FF0FF33224600200B931BF0EAFE93
:10193000202200210CA81EF0DAFA2046FEF718FF3C
:10194000214602460CA81EF02CFB1BF019FF384D57
:10195000442208A91BF018FF2B68199033B3DB68E9
:1019600023B30022114628469847061E20DB2B6829
:10197000002B4CD09E68002E49D008AA4823284648
:101980000021B047021E08DA02EAE2762949002067
:101990001BF0B8FE30461AB070BD27492246002021
:1019A0001BF0B0FE002630461AB070BD4FF0FF3677
:1019B0002249324600201BF0A5FE30461AB070BD09
:1019C000099A42BB11460CA820221EF090FA20462C
:1019D000FEF7CEFE214602460CA81EF0E2FA2022B7
:1019E00069460CA81EF05AFA06460028ADD11449E3
:1019F00022461BF087FE30461AB070BD4FF0FF3212
:101A0000104900201BF07EFE6FF00106C2E74FF088
:101A1000FF363246BAE70C4900201BF073FE4FF048
:101A2000FF36B7E7004000082107000D2820060810
:101A30004C000020E42006080C210608BC20060803
:101A400094200608FC1F06086420060808B54FF419
:101A5000C061002003F050F930B10146084803F09E
:101A60000BF9084B186000B908BD042103F03AF9DE
:101A7000054A064800210CF0B9FA054B186008BD6C
:101A8000FD1A040830130020F0640608951A0408B3
:101A90002813002070B5134A134D40F21C41022058
:101AA0000CF038FD114B28601B68A3B9104C114E87
:101AB0004FF0FF33002221460CF09EFD48B9D4F8C8
:101AC0000E300D49DBB2072B03D856F823302068BF
:101AD00098472868ECE70146184603F0F3F82868B1
:101AE000E4E700BF146506082C1300203013002023
:101AF0000C0900202C650608120900202DE9F04190
:101B0000084686B00D460021174698460BF09EFF0A
:101B1000002843D000240123064600940DF10B0257
:101B2000214628460CF090F89DF80B305A2B35D101
:101B3000032E2FD90423009403AA21462846039498
:101B40000CF082F8039BB3F15A3F27D10F2E049477
:101B500020D90423009404AA0C2128460CF074F820
:101B6000049BB3F5807F19D80533B6EB830F19D2E8
:101B7000F71E01260423B1B2009405AA2846059455
:101B80000CF062F8059BB3F15A3F06F1010605D04F
:101B9000BE42EFD1012006B0BDE8F081022006B0C0
:101BA000BDE8F08128460E4D00949E00B3B22A464F
:101BB00021460CF049F81BF0E3FDEA68043292007C
:101BC00029461BF0E1FDEB68043355F823308342CE
:101BD000E4D13E60AB6888F800302046DFE700BF04
:101BE000F8040020004870475C000020704700BFE8
:101BF00038B50C4605461CF0FFFB4DF6AD620021E2
:101C00001CF0FEFB63680C4C4FF05A31C4E9001322
:101C10004BF206420023C4E902231BF0B1FD21462A
:101C200010221BF0B1FD03462146284623611422F1
:101C3000BDE8384003F092B8BC1B002038B50D4C0D
:101C40004B684FF05A31C4E900134BF205420023B0
:101C5000C4E9022305461BF093FD214610221BF028
:101C600093FD03462146284623611422BDE83840EF
:101C700003F074B8BC1B002038B50D4C4B684FF016
:101C80005A31C4E900134BF204420023C4E9022391
:101C900005461BF075FD214610221BF075FD03461D
:101CA0002146284623611422BDE8384003F056B887
:101CB000BC1B002038B5104C4B684FF05A31C4E9BA
:101CC00000134BF207420023C4E9022305461BF030
:101CD00057FD214610221BF057FD214603461422D2
:101CE0002846236103F03AF81CF0B0FA1CF0B2FA6F
:101CF000BDE838401CF068BCBC1B002030B5A1B06A
:101D000005460EA80191FFF72DFD9DF848309DF87E
:101D10004CE09DF849009DF84D409DF84B209DF802
:101D200051C01B064FEA0E6E4EEA044E43EA0043D2
:101D30009DF850409DF8550013434FEA0C4C9DF818
:101D40004A204CEA046C9DF8544043EA0223000404
:101D50009DF85920059340EA04609DF858409DF88D
:101D60005D30120442EA04629DF85C401B0443EAC1
:101D700004639DF84F404EEA040E9DF853404CEA30
:101D8000040C9DF8574020439DF85B4022439DF88A
:101D90005F4023439DF84E404EEA042406949DF88C
:101DA00052404CEA042407949DF8564040EA04202F
:101DB00008909DF85A002B4C42EA002209929DF8A7
:101DC0005E2043EA02230A93119A9DF8603010992D
:101DD0009DF86400CDE903129DF861200199120479
:101DE00042EA03629DF8633049681A439DF8623005
:101DF00042EA03229DF865300B921B049DF8672090
:101E000043EA006313439DF8662043EA02230F9AD6
:101E1000CDE90C324FF05A3323604BF20343C4E94F
:101E200001130DF10C0E0B23E360BEE80F0004F16B
:101E3000100CACE80F00BEE80F00ACE80F009EE805
:101E400007008CE807001BF09BFC21463C221BF09E
:101E50009BFC4022034621462846E36302F07EFFB6
:101E600021B030BDBC1B002030B593B0054668469C
:101E70000C46FFF777FCDDE90C0261680E9B124C03
:101E800000BA12BAC4E904021BBA4BF20142616003
:101E9000A3614FF05A310F9BA2600422E3612160DD
:101EA000E2601BF06DFC214620221BF06DFC4FF020
:101EB000FF3320622422C5F80E302146284602F066
:101EC0004DFF13B030BD00BFBC1B002030B50C4629
:101ED00091B04969A269E369054620690DF1080CD2
:101EE000ACE80F0000230A93DDE9032301BA12BA1C
:101EF0001BBA06910BA805990991CDE90723FFF7B5
:101F000037FC30BB0F9A099B009207A908AA06A8C4
:101F1000FFF75AFC6268104C4FF05A3323604BF2C3
:101F20000243C4E90123C00F0123C4E903301BF0BD
:101F300027FC214614221BF027FC4FF0FF33606181
:101F40001822C5F80E302146284602F007FF11B0CE
:101F500030BD44F68762D6E7BC1B0020F0B50846CA
:101F600087B00C46002117460BF070FD38B30026F1
:101F70000123054600960DF10E02314620460BF076
:101F800063FE9DF80E30542B19D1032D14D9042370
:101F9000009605AA314620460BF056FE9DF81530F6
:101FA000432B0CD19DF816304C2B08D19DF81730DF
:101FB000592B04D1092D05D8012007B0F0BD02200E
:101FC00007B0F0BD022304AA0821009620460BF0BA
:101FD0003BFEBDF8101040F2EE23A1F111029A422F
:101FE000EDD88D42E8D30D4601390096012389B220
:101FF00020460DF10F020BF027FE9DF80F00002880
:10200000DDD1B5F5807F3D6088BF0320D8E700BFF4
:1020100030B50C4C0C4D87B028684FF0FF330022D0
:1020200021460CF0E9FA0028F6D100F0AFF8684636
:10203000A288064900F022FE2068694600F0B8F840
:10204000EAE700BF00000010D025002006000010C5
:1020500070B54FF4407182B0012002F04DFE30B1F6
:1020600001463D4802F008FE3C4B186008B902B03A
:1020700070BD002102F036FE4FF44071022002F0E4
:102080003BFE014600283DD0334802F0F5FD344BBD
:102090001C461860002851D14FF4C061002002F0A6
:1020A0002BFE002836D0014601902B4802F0E4FDBB
:1020B0002C4B1E461860019B002847D11946264824
:1020C00002F0DAFD284B1D46186000283AD1274A55
:1020D0004FF4847103200CF01DFA204B0146186860
:1020E000234B196002F0EEFD206810BB3068A0B9E8
:1020F0002868C8B91F4A2048002102B0BDE87040D6
:102100000BF074BF4FF4C0610020154C02F0F4FDD9
:102110000028C8D1134E144DD9E7154B196802F0A9
:10212000D1FD28680028E5D0114B196802F0CAFDDE
:10213000E0E70F4B196802F0C5FDD7E7012102F077
:10214000D1FDA9E7082102F0CDFDC0E7042102F08E
:10215000C9FD019BB2E700BF5D1F0408E025002018
:10216000DC250020D8250020D42500207065060835
:10217000D02500204C65060811200408004870474F
:102180007C000020004870476C00002008B5064B1A
:102190001A783AB1054A106810B10BF08BFF024B68
:1021A00000221A7008BD00BFE4250020A4370020DB
:1021B000002900F07D822DE9F04F4D78ADB0002D63
:1021C00040F021820B78302B06460C4600F04A8204
:1021D00000F2F581102B00F05D82202B40F013827D
:1021E00005F0EEF98346002800F00D82228943892C
:1021F00011929A420F93C0F06282A94611956289AA
:10220000BBF80C3012929A42109380F094839B1A80
:102210009BB210939246636862881F46002A40F082
:102220008B82C64B1F9342F22E03ADF8803042F6EC
:102230002E63ADF8823020238DF884302E238DF864
:10224000853042F22E03ADF8863042F62E63ADF8AB
:10225000883020238DF88A302E238DF88B3042F27F
:102260002E03ADF88C3042F62E63ADF88E3020236D
:102270008DF890302E238DF8913042F22E03ADF878
:10228000923042F62E63ADF8943020238DF89630CC
:102290002E238DF8973042F22E03ADF8983042F697
:1022A0002E63ADF89A3020238DF89C302E238DF8C4
:1022B0009D3042F22E03ADF89E3042F62E63ADF80B
:1022C000A03020238DF8A2302E238DF8A33042F2C7
:1022D0002E03ADF8A43042F62E63ADF8A6302023CD
:1022E0008DF8A8302E238DF8A93000218DF8AA3062
:1022F0008DF8AB10A07CBBF80C308046504498425F
:1023000040F206821298984280F06183A3EB0A03A0
:102310001393BBF80A3008EB0901994240F2F581AA
:102320001199994280F05083A3EB09030E931FABE0
:1023300083490D9300201BF0E5F9CDE9049A109B29
:1023400007930F9B0693238A0393237D0293E37CD9
:102350000193A37C0093638922897A4900201BF0B2
:10236000D1F97B7B3A7BCDF8048094F812C0764992
:10237000CDF808C00020CDF800C01BF0C3F9734BA6
:10238000DBF820100E9FBBF80A20A07C002908BFB4
:102390001946B845BBF80C3000F0E582DFF8D0C133
:1023A000CDF80C80CDE9040C139802900E98CDE97D
:1023B0000010674900201BF0A5F9E368002B00F02E
:1023C000CD82228A002A00F0C982E17C012A0E46D1
:1023D000197800F07E8101F17F02D2B27D2A00F2ED
:1023E00078815878A0F14002D2B2BE2A00F2718101
:1023F0007F2800F06E8100228DF851205B788DF8E7
:10240000501015A88DF8513003F056FE002840F00A
:10241000E6820127A1464F4CA84614F8015B18AB91
:1024200000933A4614AB3146284603F093FE002849
:1024300000F04A819DF8763006939DF8753005933B
:102440009DF874300493BDF870300393BDF872307A
:1024500002931B9B01939DF8683000939DF87B309D
:102460000B939DF87A300A939DF8793009939DF883
:10247000783008939DF8773007933749189B2A46A0
:1024800000201BF03FF9354BA342C6D103F004FEF8
:10249000002814BF324B334B0E9314AB0CBF0120FA
:1024A00000203246009310213B464546B846374649
:1024B000064603F033FE14A98246009143463A468D
:1024C0001821304603F02AFE14A9009143463A46EB
:1024D00020214C468146304603F020FE0E9A2249C8
:1024E000CDE90090534600201BF00CF9BBF80A2000
:1024F000BBF80C3003FB02F252B1DBF81830013BA1
:10250000D018002213F8011F01B101329842F9D10D
:10251000164900201BF0F6F803F0B8FE0022BBF8C5
:102520000A300192BBF80C1000915846114605F094
:1025300089F8584605F04AF81CE000BF2E2E202EE0
:10254000342206085C220608C8220608AC210608C8
:102550000823060888650608B42306088B65060864
:102560000022060808220608182406086424060823
:10257000B0210608238A0022002B40F0FB81BBF823
:102580000A20BBF80C3003FB02F2002A00F02C8278
:10259000DBF81830013BD018002213F8011F19B1E5
:1025A000002A08BF0D4601329842F6D12B465A4800
:1025B0005A490068009000201BF0A4F865E0602BE9
:1025C00024D11FAB18460D93FFF7D2F8002840F036
:1025D000C081DDE92125DDE91F012B0A25928DF857
:1025E00099301F227023CDE921230023CDE9230157
:1025F00020938DF89A300D99494B8DF898503046BC
:102600001F9302F0ABFB2DB0BDE8F08F51D9802BAA
:10261000F9D10B7AFF2B00F09281002BF3D14B7A8A
:10262000FF2B00F0D681002BEDD18B7AFF2BEAD166
:1026300003253C4B186820B10BF02CFD3A4B0122CE
:102640001A7004F0BDFF04460028DCD0082104F015
:10265000F3FF03F01BFE63890195A089009000221F
:1026600011460CE004F0ACFF04460028CBD003F088
:102670000DFE63890195A289009229462A462046CB
:1026800004F0E0FF204604F0A1FF2DB0BDE8F04FBC
:1026900003F006BE2249ADF88C50CDE91F15132278
:1026A0001FA9CDE921238DF88E5002F057FBAAE730
:1026B0007047402B00F0A281502B82D0A3E79B1AD9
:1026C0009BB20F9391469AE5184BA3427FF4A5AEB7
:1026D000DCE6002315A88DF850108DF8513003F07A
:1026E000EBFC002800F06E81159A179B104900271B
:1026F000CDE900169DF8511003919DF850100291FC
:1027000000200C491AF0FEFF84E6CDF838800EE672
:10271000CDF84C80FDE500BFB8490020982406089C
:1027200054434C59A4370020E42500208B6506084B
:10273000F8210608742306081978AC4B0909012A08
:10274000595C8DF87C10397801F00F01595C8DF8D7
:102750007D104FF020018DF87E1000F0E881787830
:102760000009022A185C8DF87F0078788DF88110B6
:1027700000F00F00185C8DF880003FF458ADB87879
:102780000009032A185C8DF88200B8788DF884104F
:1027900000F00F00185C8DF883003FF44FADF8781F
:1027A0000009042A185C8DF88500F8788DF88710E8
:1027B00000F00F00185C8DF886003FF446AD3879C4
:1027C0000009052A185C8DF8880038798DF88A1080
:1027D00000F00F00185C8DF889003FF43DAD78796A
:1027E0000009062A185C8DF88B0078798DF88D1019
:1027F00000F00F00185C8DF88C003FF434ADB87910
:102800000009072A185C8DF88E00B8798DF89010B1
:1028100000F00F00185C8DF88F003FF42BADF879B5
:102820000009082A185C8DF89100F8798DF893104A
:1028300000F00F00185C8DF892003FF422AD387A5A
:102840000009092A185C8DF89400387A8DF89610E2
:1028500000F00F01595C8DF895103FF419AD797AAD
:1028600009090A2A595C8DF89710797A01F00F014D
:10287000595C8DF898104FF020018DF899103FF4B5
:102880000EADB87A00090B2A185C8DF89A00B87A58
:102890008DF89C1000F00F00185C8DF89B003FF441
:1028A00005ADF87A00090C2A185C8DF89D00F87ABD
:1028B0008DF89F1000F00F00185C8DF89E003FF41B
:1028C000FCAC387B00090D2A185C8DF8A000387B21
:1028D0008DF8A21000F00F00185C8DF8A1003FF4F5
:1028E000F3AC787B00090E2A185C8DF8A300787B86
:1028F0008DF8A51000F00F00185C8DF8A4003FF4CF
:10290000EAACB87B00090F2A185C8DF8A600B87BEA
:102910008DF8A81000F00F01595C8DF8A7103FF456
:10292000E1ACF97B0909595C8DF8A910F97B01F03C
:102930000F015B5CD9E400239A4612936BE44B7A57
:10294000002B7FF460AE8B7A002B7FF45CAE012508
:102950006FE600231A46194618463FE62449002030
:102960001AF0D0FEC2E5139EB0427FF417ADDFF837
:1029700088C015E51199ADF87C101299ADF87E105C
:102980000F99ADF88010ADF88C3010998DF8852036
:102990000123ADF86020ADF882108DF862308DF81B
:1029A0009430237D8DF88430E368628A0D982293F9
:1029B00018ABADF88E20249303F04EFC584604F07B
:1029C00005FEDCE5074625E500230E93AFE41391F1
:1029D0009FE48B7A002B7FF416AE022529E6159A28
:1029E000179B0449012783E61346E0E58C6506083A
:1029F0004C230608F4210608142C060818A8FEF734
:102A0000B7FE002840F088801C9D1FAB18460D9330
:102A1000FEF7AEFE002840F08680DDE92231484A0C
:102A20000091002047491AF06DFEA38A4649CDE97E
:102A30000A35E37C0993A37C0893637C0793237C8A
:102A40000693E37B0593A37B0493637B0393237B30
:102A50000293E37A0193A37A0093637A227A0020A7
:102A60001AF050FEA38A009504F1100204F10C0143
:102A700004F10800FEF7A8FE054680460D98FEF713
:102A800077FE324B32499DF87FC09DF87EE09DF87D
:102A90007D209DF87C70002D08BF0B4600283ED09D
:102AA00000212C480D46CDE903ECCDE90515CDE913
:102AB000017200904246284900201AF023FEA38AA2
:102AC00026491A4600201AF01DFEA3682393E368E6
:102AD000249323692593A38AADF898301F225023AD
:102AE000CDE9212300230D9920938DF89A303046AB
:102AF0001B4B1F9302F032F964200BF0F1FABFF385
:102B00004F8F1849184BCA6802F4E0621343CB6038
:102B1000BFF34F8F00BFFDE744F6876575E7DDE93A
:102B200022150748BFE700230A4A194678E72E23F3
:102B30008DF87F3042F22E03ADF88030FFF777BB7F
:102B4000C01E0608DC240608142506081C220608F8
:102B50008C3606081422060878250608C8250608BB
:102B600054434C5900ED00E00400FA05014801F01F
:102B7000E9BE00BF792B040830B58BB004F020FD0E
:102B800000286DD000254389019582890092044672
:102B90002A46294604F056FDA3892BB920460BB0DE
:102BA000BDE8304004F012BD039562892D480690BF
:102BB00002231021ADF81020ADF814302A4A8DF808
:102BC000243003A802ABADF81210ADF808508DF810
:102BD0000A500792089303F03FFBA0891028DDD923
:102BE0004FF4801003906089ADF810001F480690E4
:102BF0001F4807900223102102AA03A8ADF8121063
:102C0000ADF81430ADF808508DF80A5008928DF8E0
:102C1000243003F021FBA0892028BFD94FF40012F3
:102C2000039202ABB4F80AC008930223114AADF82C
:102C300014308DF82430104BADF810C003A81021CB
:102C4000CDE90623ADF81210ADF808508DF80A5002
:102C500003F002FB20460BB0BDE8304004F0B6BCE8
:102C60000BB030BDC065060809001003B06506084A
:102C70000E001003A06506080F0010030346002095
:102C8000C3E90000C3E90200C3E90400002900F021
:102C900087802DE9F04F1646113A92B2EF2A83B0A1
:102CA000174603D80A78542A0C4605D001225A70D8
:102CB000184603B0BDE8F08F4A78432AF6D18A78E7
:102CC0004C2AF3D1CA78592AF0D10A89B242EDD1FF
:102CD0008A1912F8012C9046002AE7D10A7B502A63
:102CE000914601F1100A65D066D8302A62D078D8B2
:102CF000102A5FD0202A65D1102F6AD90A7F114689
:102D00009346627F8A4264D1182A03D0202A01D0D8
:102D1000102A5ED122699A6004F118003E4901939D
:102D2000042205461DF0BAF8019B002872D03B49E9
:102D3000042228461DF0B2F8019B002868D03849CB
:102D4000042228461DF0AAF8019B00285ED0042228
:102D5000344928461DF0A2F8019B00280CBF03222D
:102D60000022DA74A27F83F812B0002A4CD1E27FED
:102D7000FF2A42D0002A47D194F82020FF2A0CBF16
:102D8000032201221A75A6F122021A82213483F845
:102D9000009083F801805F80C3F804A0DC6087E7BF
:102DA00001225A7018467047022F12D90A8A1A81D6
:102DB0008A7C9A720024EAE7702A0ED0802AF3D027
:102DC000602AF7D040F2FF221A805F80C3F804A087
:102DD0006EE700244FF00308D9E700244FF0020803
:102DE000D5E7402AEED10D2FF3D90A699A608A6996
:102DF0001A618A8B4C699A82C9E794F82020002ACC
:102E00000CBF02220122BDE70122BBE70222A8E794
:102E10000122A6E70246A4E78826060890260608AF
:102E200098260608A02606082DE9F041084684B039
:102E30000C46002190460AF009FE00284FD00026DB
:102E400001230546009603AA314620460AF0FCFEFF
:102E50009DF80C300A2B42D1012D3AD0012319469E
:102E600000960DF10D0220460AF0EEFE9DF80D30A1
:102E7000402B4FD031D8012B35D8022D29D001233A
:102E800000960DF10E02022120460AF0DDFE9DF8AB
:102E90000E30062B23D89DF80D30012B14BF0323D1
:102EA00006239D42194614D901230DF10F020F4646
:102EB000009689B220460AF0C7FE9DF80F307A1CB2
:102EC0000D2B114636D0954201D9952AECD1942D7F
:102ED00005D8012004B0BDE8F081502B06D00220B7
:102EE00004B0BDE8F081363B032BF8D8022DF0D0BA
:102EF000002300930DF10F020123022120460AF066
:102F0000A3FE9DF80F300D2BE9D10323C8F8003044
:102F10000020E5E7042DDCD9012300960DF10F0216
:102F2000042120460AF090FE9DF80F300D2BD6D1DB
:102F30000523EBE7C8F800200020D1E72DE9F04198
:102F4000104C114DDFF85080104F114E86B028689C
:102F50004FF0FF33002221460BF04EFB0028F6D144
:102F60000C49A28801A800F09FF99DF8053020685F
:102F700001A91BB9D8F800203A60337000F072F84C
:102F8000E5E700BFE8250020C028002090260020AB
:102F90008C260020EE2500209426002000B54FF45A
:102FA000407183B0012001F0A7FE30B101461E48F8
:102FB00001F062FE1D4B186008B903B000BD00218E
:102FC00001F090FE4FF44071022001F095FE0146A1
:102FD000F0B1154801F050FE154B1860F0B9154AD4
:102FE00001939D2103200BF095FA104B124A0146E4
:102FF0001868116001F066FE019B0F4A186848B915
:103000000E4A0F48002103B05DF804EB0AF0EEBF52
:10301000074BE4E7116801F055FEF1E70121019348
:1030200001F060FE019BDAE7292E0408C828002081
:10303000C4280020F0650608C0280020CC650608DA
:103040003D2F0408024B034A1B680A331360704784
:103050009426002088260020014B00221A60704729
:1030600088260020002900F0C2802DE9F0434B782B
:103070008DB006460C46DBB90B78052B15D8DFE87A
:1030800003F03D038F83892A834B012200201A70AD
:1030900004F08CFE0A240D23032205A93046ADF866
:1030A00014408DF8163001F059FE0DB0BDE8F083E4
:1030B000042B14BF022101210D238DF815100A24C1
:1030C000032205A98DF814408DF8163001F046FE54
:1030D0000DB0BDE8F0830C7A04F072FA03460028C4
:1030E000D8D06E4A106818B103930AF0D3FF039B3F
:1030F000611CC9B2184604F09FFACBE704F060FAED
:103100000746002865D0238A9846002B61D0E368E3
:1031100099461B78202B4AD0302B00F0AF80627A82
:103120000392002A64D104F04BFA58B1039A438900
:103130000192818900910546114604F083FA2846E0
:1031400004F044FA544A002305931278D7F80A1081
:103150008DF81C20E0680691218A089005AC1020AB
:1031600001228DF81D30ADF82600ADF810300DEBC2
:1031700000032046ADF824108DF812200A938DF834
:103180002C2003F069F825E0012004F015FEFFF77C
:1031900059FF7FE7002004F00FFEFFF75DFF79E79E
:1031A0003D4B022201201A7004F000FE72E7647A9F
:1031B000002C54D104F004FA58B143890194828957
:1031C000009205462246214604F03CFA284604F0C7
:1031D000FDF905AC4FF00A0C0D23032221463046C1
:1031E000ADF814C08DF8163001F0B8FD5DE77047FA
:1031F00004F0E6F9039A0028EBD0541EE4B2054629
:103200002401002110224389CDE90021224604F047
:1032100019FA6B89ADF8183004AB0A9301238DF8C5
:103220002C301D4BADF8164005AC00214FF01002BC
:103230001B78CDF820902046ADF81410ADF81A2078
:103240008DF81D10ADF82480ADF82620ADF81010D3
:103250008DF812108DF81C3002F0FEFFBAE7621EE6
:10326000002110241201438992B2CDE9004104F0FB
:10327000E9F9384604F0AAF905ACABE7BFF34F8F84
:103280000749084BCA6802F4E0621343CB60BFF3FE
:103290004F8F00BFFDE700BF8C000020A437002047
:1032A00000ED00E00400FA050023C0E90033C0E9A6
:1032B0000233036131B1022A04D991F800C0BCF194
:1032C0000A0F02D001234370704701EB020C1CF877
:1032D00001CCBCF10D0FF5D170B591F801C0BCF176
:1032E000010F4FD9ACF1360C5FFA8CF31A2B12D8C0
:1032F000BCF11A0F0FD8DFE80CF041393D350E0E46
:103300000E0E0E0E120E0E0E0E0E0E0E0E0E0E0ED9
:103310000E0E0E0E290040F20723038070BD052A11
:1033200001F102064BD04FF0000ED51E0523714669
:103330007446F4460122037042704580466080F86E
:1033400008C04472C160A0F810E070BD8E1CD51E8C
:1033500006234FF0000E033A18BF0122714674464F
:10336000F446E8E78E1CD51E0423F2E78E1CD51E1A
:103370000223EEE78E1CD51E0323EAE78E1CD51E22
:103380000123E6E7032A01F10206A2F1030529D091
:10339000BCF1010F8C782BD0062C1ED8A2F1040EA4
:1033A000002C01F103011FFA8EFE14BF1822912296
:1033B00072452CBF0022012292000023BBE791F846
:1033C00002C04FF0000EBCF1070F13464FF002058C
:1033D0007146744604D87246ADE79E4619469C462F
:1033E0000322A8E71D469E4619461C469C46A2E7B6
:1033F00044B9062A0AD9A2F1070E06311FFA8EFE39
:103400008E22D5E79E461946032294E7214623469D
:10341000A64603228FE700BF2DE9F041084684B09D
:103420000C46002117460AF011FB002842D000216B
:103430000091012305460DF10A0220460AF004FC22
:103440009DF80A300A2B4FF0000137D07B2B31D189
:10345000012D2BD0012300910DF10B0219462046BE
:103460000AF0F2FB9DF80B30A3F13102082A02D9D1
:10347000403B052B1ED8022D18D04A2D2B4628BFC5
:103480004A23984602210023009303AA01230E46F3
:10349000204689B20AF0D8FB9DF80C30721C7D2BB7
:1034A000114622D09045EED8492D03D8012004B012
:1034B000BDE8F081022004B0BDE8F081022DF5D90D
:1034C0000091022303AA012120460AF0BDFB9DF8CA
:1034D0000C30462BEED19DF80D300A2B01D00D2B70
:1034E000E8D103233B600020E5E700203A6004B008
:1034F000BDE8F08130B50B4C0B4D87B028684FF01C
:10350000FF33002221460BF077F80028F6D101A8FE
:10351000A288064900F0FEFA206801A900F0A4F88C
:10352000ECE700BFCC280020682A0020D228002029
:1035300000B54FF4407183B0012001F0DDFB30B1E4
:1035400001461E4801F098FB1D4B186008B903B0F6
:1035500000BD002101F0C6FB4FF44071022001F0D4
:10356000CBFB0146F0B1154801F086FB154B186006
:10357000F0B9154A0193522103200AF0CBFF104BFA
:10358000124A01461868116001F09CFB019B0F4A2A
:10359000186848B90E4A0F48002103B05DF804EBE3
:1035A0000AF024BD074BE4E7116801F08BFBF1E75B
:1035B0000121019301F096FB019BDAE7193404081D
:1035C000702A00206C2A00202C660608682A002039
:1035D00008660608F53404082DE9F0418AB004466F
:1035E0008846174603F0ECFF002833D01B4E438972
:1035F000327800920546002104FB02F2019104F0AA
:1036000021F86A893378ADF81020154AADF81230E8
:1036100014FB03F48DF81E30124B10781B78ADF8B4
:103620000E40002102AC01228DF81F0003A8CDF846
:103630001880ADF80C108DF81510ADF81C70ADF8B1
:1036400008108DF80A1008948DF824208DF8143095
:1036500002F002FE0AB0BDE8F08100BF8D0000203C
:10366000742A00208E000020002958D04B78002BAF
:1036700055D130B50B78ADB00D46112B4DD8DFE8E4
:1036800013F01200A100990062004F0035011401EF
:10369000FC00F600F000E300DD00D7004C00C9009C
:1036A000C600BF004F0003F08BFF002800F015821A
:1036B000002382491493824AD0F80AC009788148CD
:1036C00012788DF858101790122140F2011014ACA6
:1036D0008DF85930ADF860108DF862308DF86320A8
:1036E00012AB01210222ADF8480020461993029343
:1036F000CDF854C08DF84A108DF8682002F0ACFD6A
:10370000029B704820211291224612210AF02EFBC2
:10371000BDF84810204603F0F5FD2DB030BD7047D0
:1037200003F04EFF04460028F7D00022438901929F
:1037300081890091114603F085FF20462DB0BDE838
:10374000304003F043BF03F03BFF04460028E4D0C1
:1037500000224389019281890091114603F072FF92
:10376000AB890022002BE8D0544914920978D4F890
:103770000AC08DF858105449CDF854C0DFF840C144
:10378000A86809789CF800C01790ADF860308DF8F3
:103790006210012312A914A88DF859208DF863C076
:1037A000ADF848208DF84A3019918DF8683002F054
:1037B00053FDB2E70A8A287AC9682DB0BDE83040C7
:1037C000FFF70ABF03F0FCFE044658B10322438909
:1037D0000192818900910022114603F033FF2046B7
:1037E00003F0F4FE20211291384812AB14AA1821DC
:1037F0000AF0BCFABDF8481014A803F083FD8CE76A
:10380000334903222DB0BDE8304001F0A7BA314959
:103810000F22F7E70C7A03F0D3FE00283FF47DAFC8
:103820002D4A4389125D019281890446002280E776
:103830002A7A2A49224B8A5C1A706EE72A7A28492A
:10384000214B8A5C1A7068E74B89B3F5165F14BF89
:103850004FF4E1304FF416502DB0BDE8304002F087
:10386000AFBD2A7A1F49154B8A5C1A7055E7087A52
:103870002DB0BDE8304003F06DBD0C7A03F0A0FE22
:10388000034600283FF449AF174A1068002C00F0A7
:10389000278118B102930AF0FDFB029B21461846CE
:1038A0002DB0BDE8304003F0C7BE087A082800F00C
:1038B0000D812DB0BDE8304000F0A0BA8E00002090
:1038C000742A0020686606088D0000204C660608F1
:1038D0007C66060888660608446606088066060850
:1038E0008466060848660608A43700200624804837
:1038F000079407AB08AA09210AF038FA7D48079413
:1039000007AB0AAA09210AF031FA7B48079407ABF2
:103910000CAA09210AF02AFA7848079407AB0EAAE4
:1039200009210AF023FA7648079407AB10AA092167
:103930000AF01CFA02247348079407AB05AA032176
:103940000AF014FA07AB06AA03216F4807940AF09D
:103950000DFA2B7AD5F80CC0298A0022CDE9122263
:10396000002B44D10A297FF6D8AEDDE90801624672
:103970001490ADF85410DDE90A0112F801EB8DF84E
:1039800056E01A90ADF86C10DCF80110CDF86E100E
:10399000DDE90C0192F804E0BDF8142020908DF8C8
:1039A00072E0ADF87320ADF88410DCF80610CDF8A5
:1039B00086109CF80AC055488DF88AC00D21ADF8D4
:1039C0004C10ADF88B20129012AC14A92046039134
:1039D00030F8022B02930446D8B2FFF7FDFD029B9C
:1039E00003990133032B01F11801EFD195E6132957
:1039F0007FF693AEDDE90E011490ADF854109CF8FB
:103A000002104FF02E0E1346BCF80020ADF85620E1
:103A10008DF858108DF859E0DDE90A01BCF8032053
:103A2000ADF85A20BDF818201A90ADF86C10ADF81A
:103A30005C20DCF80510CDF86E10DDE90C019CF877
:103A40000940ADF88410BDF814108DF87240ADF83F
:103A500073102090DCF80A00CDF886009CF80E0068
:103A6000ADF88B102A498DF88A001291DDE910011A
:103A7000ADF89C100D212690ADF84C10BCF80F103D
:103A80009CF811008DF8A000ADF89E108DF8A1E013
:103A9000BCF81210ADF8A210ADF8A42012AC14A915
:103AA0002046039130F8022B02930446D8B2FFF768
:103AB00093FD029B03990133032B01F11801EFD110
:103AC0000E2226A91846FFF787FD26E6098AE86830
:103AD0002DB0BDE8304003F015BC12AB14AC10E6BD
:103AE00000283FF41AAE2DB0BDE830400AF0E2BA2B
:103AF0001827060824270608302706083C2706084A
:103B000048270608542706085827060807000D000E
:103B10000E000D000023C0E90033C0E90233036149
:103B200089B3022A2FD991F800C0BCF10A0F2DD019
:103B3000BCF17B0F27D18B1813F8013C7D2B22D1D0
:103B400091F801C0ACF13103DBB2142B00F2DD803F
:103B500030B5DFF8A4E21EF80330122B28D0A2F112
:103B6000030EBCF1410F1FFA8EF501F1020E00F0B9
:103B7000BF80A3F10A0CBCF1050F4FD8DFE80CF0B1
:103B8000444E303A261C012343707047032AFAD171
:103B90004A78462A04D002231222027043707047EA
:103BA0008A780A2A00F0AF800D2AF4D11122F4E7B6
:103BB00040F21223038030BD032A00F0B38040F2AC
:103BC0000F1303804580C0F804E030BD042A00F0E4
:103BD000CE804FF4877303804580C0F804E030BD89
:103BE000042A00F0A4804FF4867303804580C0F857
:103BF00004E030BD042A00F0BE8040F20D130380C3
:103C00004580C0F804E030BD062A00F09F804FF4E4
:103C1000857303804580C0F804E030BD082B00F2B6
:103C2000E880DFE803F00505533E05422E2312002D
:103C3000012D94BF002101218900002203704170F1
:103C40004580C0F804E0028230BD032A3BD091F8E1
:103C500002C0ACF131010429ACF1300C94BF002159
:103C60000121002280F808C08900E7E7032A2AD052
:103C70008A78082A03D9303AD2B2082A23D80272A5
:103C80000CE0032A1FD08C78A4F1300C5FFA8CFC76
:103C9000BCF1070F00F28B8080F808C000221146AB
:103CA000CCE7C0F808E08581F8E7032A0BD091F84B
:103CB00002C0ACF1300C5FFA8CFCBCF1010F80F853
:103CC00008C040F2838000220421B7E7032AFAD01B
:103CD00091F802C0ACF1310C5FFA8CFCBCF1050F1D
:103CE000F1D80331C16080F808C0043A0021A5E78B
:103CF000042A0ED0052A42D001220370427045806A
:103D0000C0F804E030BD102247E740F212230380E0
:103D100070478B780372022B94BF002301239A0013
:103D20000B23EAE70F230370C0F804E030BD8A7864
:103D30000C21032A94BF002301239B00027201225D
:103D4000017043704280C0F804E030BD8A78B1F859
:103D50000330027259BA012A41811DD904230A2174
:103D60000322017043704280C0F804E030BD8A78BD
:103D70000E21022ADEE78A780D21022ADAE78B7803
:103D8000A3F13102022AA3F1300194BF00220122E3
:103D9000017292000923B0E748F22502934204D051
:103DA000C23B18BF01239B00D9E70023D7E7382C7B
:103DB00089D1043A033192B2C160B2FA82F1490961
:103DC0004FF0080C890080F808C037E70331043A47
:103DD000C16092B2BCF1000F05D0132A8CBF002144
:103DE000012189002AE70A2A8CBF002101218900CC
:103DF00024E70022022121E798660608072800D957
:103E0000704710B50B4A52F820208CB0282310467A
:103E100014460193FCF7ACFC01AB014602AA204614
:103E200009F0A4FFBDF8041002A803F06BFA0CB06F
:103E300010BD00BFB0660608F0B5084685B00D4657
:103E40000021174609F002FE88B30024012306462C
:103E500000940DF10D022146284609F0F5FE9DF86B
:103E60000D30FF2B23D1012E24D0012319460094BD
:103E70000DF10E02284609F0E7FE9DF80E10062906
:103E800015D9FE2913D0B14214D801390123009469
:103E900089B228460DF10F0209F0D6FE9DF80F30C9
:103EA000FF2B04D19DF80E303B60204600E002203D
:103EB00005B0F0BD012005B0F0BD00BF30B50B4C22
:103EC0000B4D87B028684FF0FF33002221460AF0DF
:103ED00093FB0028F6D101A8A288064900F0DAF980
:103EE000206801A900F05EF8ECE700BF782A002006
:103EF000E82E00207E2A002000B54FF4407183B0E8
:103F0000012000F0F9FE30B101461F4800F0B4FE78
:103F10001E4B186008B903B000BD002100F0E2FE9E
:103F20004FF44071022000F0E7FE0146F8B1164858
:103F300000F0A2FE164B1860F8B9164A019340F241
:103F4000071103200AF0E6FA104B134A01461868DD
:103F5000116000F0B7FE019B0F4A186848B90F4A7C
:103F60000F48002103B05DF804EB0AF03FB8084B9E
:103F7000E3E7116800F0A6FEF1E70121019300F0EC
:103F8000B1FE019BD9E700BF393E0408F02E0020A6
:103F9000EC2E0020F4660608E82E0020D066060805
:103FA000BD3E040889B34B787BBB2DE9F0410B780B
:103FB000C6B080460C46102B24D8DFE813F08700EB
:103FC00027002700270027002700270027002700B9
:103FD000EE00D100C100B60017010B011101110064
:103FE000A24BA34A1B7883F0400106928DF81C3047
:103FF0008DF81D10FF234046072206A98DF81E30BC
:1040000000F0ACFE46B0BDE8F0817047097A994EE9
:10401000228A01EB4101002006EBC10346F8310082
:10402000C3E90100C3E90400D8600546207AE168CD
:10403000182A134600EB400028BF18231A4606EB47
:10404000C0001F461BF0ADFF8B4A237A0397D7545D
:1040500003F0B6FA07460028D4D043890195227AA6
:10406000102512010021009503F0ECFA384603F008
:10407000ADFA7A89ADF81C2005AA237A03990B9230
:104080000122ADF828108DF830204FF010017B4A46
:10409000ADF81E104FF00000ADF82A1003EB4301FD
:1040A00004461278ADF814008DF816008DF8210042
:1040B0001B0106EBC10106A8ADF81A308DF82020CF
:1040C0000991ADF8184002F0C7F89BE703F078FAC1
:1040D0000546002896D000224389019281890091EB
:1040E000114603F0AFFAA189002200296CD0069294
:1040F000D5F80A300793614BA0681B788DF8203003
:10410000102405AB0990ADF8281006A801218DF800
:104110002120ADF82A40ADF814208DF816100B932D
:104120008DF8301002F098F86CE70B7A4F4A181EA1
:1041300018BF0120137046B0BDE8F04103F03CBE4B
:104140000B7A4F4C4D4A2370002B0DBF01210221E9
:1041500001200020117046B0BDE8F04103F026BEFA
:10416000484B0C7A1C7003F02BFA034600283FF4EE
:1041700049AF454A1068002C70D018B1039309F07C
:1041800089FF039B611C4909012938BF0121184699
:1041900046B0BDE8F04103F04FBAC02200213548D7
:1041A0001BF0A5FE344B0024C3E9004403F008FAD9
:1041B000054600283FF426AF438901948289009286
:1041C0002146224603F03EFA284646B0BDE8F041BB
:1041D00003F0FCB92B4B2D4A1B7883F04E0104E70A
:1041E000274B2B4A1B7883F04101FEE6214AA1218F
:1041F00041F2FF63ADF818304FF0FF338DF82D30EA
:10420000204B8DF81A101B788DF81B300D46164682
:104210000FCA07AF87E80F00DDE906737B40089FF0
:104220007B40099F7B400A9F7B40C3F3072CC3F36D
:10423000074E83EA0C0C8CEA0E0C8CEA13631622F0
:1042400006A940468DF82C3000F088FD6B1CDBB2CF
:10425000A92B194606F11802CAD1D3E600283FF46B
:10426000D1AE46B0BDE8F04109F024BFF42E0020E5
:10427000FF07B800002F0020F82E00208F0000203C
:10428000F52E002090000020A4370020FF07B60084
:10429000FF07B9000023C0E90033C0E9023303611E
:1042A00000296FD0A2F1070CBCF1F80F6AD891F881
:1042B00000C0BCF1FF0F65D101EB020C1CF801CC72
:1042C000BCF1FF0F5ED191F801C094455AD1072A85
:1042D000F0B5A2F1020600F0958026F0030427460F
:1042E0008C460C195CF804EB64458EEA0303F9D1A3
:1042F000C3F3072C83EA0C0CC3F3074E8CEA0E0CB5
:104300008CEA136CBE425FFA8CFC3B4634D0B40896
:1043100011F824E08CEA0E0C07F1010E1FFA8EFE54
:104320000EF10204A24227D911F80EE08CEA0E0C1D
:1043300007F1020E1FFA8EFE0EF10204A2421BD9F3
:1043400011F80EE08CEA0E0C07F1030E1FFA8EFE38
:104350000EF10204A2420FD911F80EE004339BB211
:104360008CEA0E0C03F1020E724588BFCB5C5FFA3B
:104370008CFC88BF8CEA030C8B5D634505D003235E
:104380004370F0BD0123437070478B7883F0800346
:10439000392B33D8DFF8A4C01CF803E0BEF1110FAD
:1043A0002CD0931F0EF1FF3C0D1D9BB2BCF10F0FE3
:1043B00041D8DFE80CF00808080808080808181EAB
:1043C0001E1E18181818182B94BF0022012280F8FE
:1043D00008C0C5609200194680F800E04270438032
:1043E00045600182F0BD073A18BF0122920000210A
:1043F000F2E7072A0FD000210422EDE740F2112353
:104400000380F0BD91F802E08CEA0E0C6FEA0C0C10
:104410004FF0030EA0E70A790272AEF10B010129F9
:1044200002D900210A46D7E7012A94BF00220122BF
:1044300092000021D0E785608381F2E70C670608CF
:1044400038B50024254608E084F00104224619F01E
:10445000C3FE4FF4FA7009F043FE19F0F7FE19F0AD
:10446000F9FE3C2D4FF009014FF0030005F1010565
:10447000EAD119F0C1FF84F001040022012119F0F2
:10448000BFFF09212246032019F0A6FE4FF4FA705F
:1044900009F026FE19F0DAFE19F0DCFEE9E700BFAC
:1044A0002DE9F043BDB003F095FE09F09BFA19F039
:1044B000CDFE19F0CFFEB748B74DFDF7FFF901F07B
:1044C00063F803F07DF8B5490446002019F01AF9A5
:1044D000B348B449B44BAF4ACDE90010B34900200A
:1044E00019F010F9CDE90055B1492B462A460020B4
:1044F00019F008F9002C00F0DF81206AA67B6289A0
:10450000A3890296002808BF2846657AA949CDE903
:104510000005002019F0F6F8A58A63792279049540
:10452000658A0395257A0295E5790195A479A249D2
:104530000094002019F0E6F8A04BA14AA149003BE5
:1045400018BF0123003A18BF0122002019F0DAF841
:1045500014A801F0B1FDF8B10520DDF850909DF8E8
:1045600054509DF855609DF856709DF85780169CE4
:1045700003F0F4FC034620B103681B680BB19847B5
:104580000346CDE90343CDE901788F4900962B46D8
:104590004A46002019F0B6F81CAF3846FDF7E8F897
:1045A000002840F06181209A9DF876300B921F9A86
:1045B00004930A929DF875309DF87B20039309922D
:1045C0009DF874309DF87A20029308929DF873301C
:1045D0009DF879209DF87710019307929DF872302D
:1045E0009DF878200591009306929DF871309DF812
:1045F0007020764919F086F824AEFCF71FFF0446B8
:10460000FCF7F4FC0546FCF765FF8046FCF7C2FFAB
:104610002B462246CDE900806D49002019F072F842
:1046200002F0CEFF05465B4B6A4A202114A81BF01E
:104630002DFB2B6A684A2021384600241BF026FBFC
:10464000664A009714AB602130461BF01FFB6B8954
:104650000194AA89009221462246284602F0F2FFE0
:10466000D5F80A3085F825404FF002083046CDE9EC
:104670000D43ADF83C801096FCF77AF8584BADF836
:1046800044001B68ADF830301B0C0DA88DF832309B
:104690000CAB12938DF84C80ADF8464001F0DCFD78
:1046A00041F2883009F01CFD6B890194AA890092BF
:1046B00028462246214602F0C5FF202285F82540E3
:1046C000214625A81BF013FC464924914FF40073A2
:1046D000324629932146082343482A9309F086FC51
:1046E000424A4348214609F081FC424A4248214659
:1046F00009F07CFC414A4248214609F077FC414AD6
:104700004148214609F072FC404A4148214609F0DF
:104710006DFCFCF75BFBFCF7E1FAFCF7FFFA40F6F7
:10472000C41009F0DDFC3846FDF722F8394905468A
:10473000204618F0E7FF042000F094FB002800F06A
:10474000B2804378012B00F0AC80334EFCF776FE4C
:104750000446072000F086FB002800F0A68043787E
:10476000012B00F09C802C4FFCF7B4FE2B490190EC
:10477000009723463246002018F0C4FF082000F0BE
:1047800071FB002800F093804378012B00F08580B6
:10479000214F45E058280608AC2106086428060881
:1047A000D4280608E4280608A4280608B028060825
:1047B000F02806082829060864290608817B0408D1
:1047C00000000000F82906083C2A06088C2A060882
:1047D000302B0608B82B0608C02B0608C82B060885
:1047E000B01D0608D02B060841440408C46306081F
:1047F000F90F04087C630608F50E0408A464060893
:104800004514040850640608E1140408FC63060813
:10481000C5150408E02B060850280608182C0608C1
:10482000FCF7B8FE0446FCF7BBFE0646022000F08B
:1048300019FB00283DD04378012B2BD0DFF8A08056
:10484000FCF7D4FB1F490096CDE9018023463A4688
:10485000002018F057FFB5B11B49002018F052FF97
:1048600000F078F809F036FC24AE3046FCF77AFF09
:10487000DDE933321549CDE900320020DDE924239A
:1048800018F040FFB9E6DDE91F231149284618F06A
:1048900039FFE1E7DFF83C80D2E70E4FC0E70D4F6C
:1048A00062E70C4E52E70C4E50E70B4F5CE70A4FA5
:1048B000B6E7DFF82480C3E70849204618F022FF56
:1048C0003AE600BF502C0608CC2C0608E42A06085D
:1048D0008C2C06084C28060848280608B02906082B
:1048E0005028060800B58BB02022002102A81BF03A
:1048F000FEFA2823084901914FF40062CDE906230E
:1049000009F00AFB002101AA044809F06FFB09F035
:1049100015FB0BB000BD00BF4C2D0608A1440408D8
:1049200082B00190019BFEE74FF0500383F31188A2
:10493000BFF36F8FBFF34F8FFEE700BF18F058BF74
:1049400018F06ABF024B1A6802B1704718607047CE
:10495000C02F0020154B1B6803B1184700B58BB062
:104960000393019302F02CFE4289ADF8102002F06F
:1049700027FE0F4AB0F80CC00E48019BADF812C0DC
:1049800003214FF0010CADF81410069202A9022287
:10499000079003A8ADF809308DF808C008918DF88C
:1049A000242001F059FC0BB000BD00BFC02F002037
:1049B000582D06081900000300B50F4A8BB00421DA
:1049C000202009F0A7FD0D4B2022C3F89001002103
:1049D00002A81BF08CFA0A4901914FF4806C18234D
:1049E00001AA00210748CDE906C309F0FFFA064BEA
:1049F00018600BB000BD00BF60670608D02F002014
:104A0000742D06080D4A0408CC2F00202DE9F04F24
:104A100089B00023DFF85CB207938DF81730DBF81C
:104A200090014FF0FF33002206A909F0E5FD0028B0
:104A3000F5D1069B002BF2D01A78082AEFD802F1A4
:104A40006E015BF821108B42E9D1DBF80040002CAD
:104A5000E5D00BEB8202D2F894A1204608F0A8FF23
:104A6000631E01211C4001FA00F313EA0A0F5FD014
:104A70000BEB8003D3F80480B8F1000F58D068B175
:104A8000002301FA03F212EA0A0F04D0734A52F823
:104A9000232042454CD001339842F2D1404608F0E1
:104AA000C7FF0021404608F0D1FF00287CD0074610
:104AB0004FF040090394DBF80040002C34D0002371
:104AC000CDE901330126009702E0631E1C4024D08B
:104AD000204608F06DFF06FA00F313EA0A0F0546B8
:104AE0000BEB8002F1D053684345EED1D2F884300D
:104AF0001A4617460DF11703002AE6D0069807AAB2
:104B00004146B8470328E0D8DFE800F01C150255FD
:104B100001230293631E1C40DAD1DDE90073002BF0
:104B200067D1029B002B58D14046039C08F088FFB8
:104B3000002C92D173E7631E1C4000F08A80012391
:104B40000193C5E7079A009F40F214439A4242D866
:104B5000BA424ED80023424992B2404609F00EF8BC
:104B600000210446404608F071FF079B9C4207461F
:104B700059D021460022404609F0CAF8002140469B
:104B800008F064FF0746374B4FF000021A70002F01
:104B9000CAD009F1FF3313F0FF098CD14A46012135
:104BA0004046039C09F0B4F8404608F049FF002C49
:104BB0007FF453AF33E70799009F40F214439942C3
:104BC00009D8B94215D889B20022404609F0A0F8A8
:104BD000381A87B2D7E7019B5BB9224B4FF000022E
:104BE0001A7001210022404609F092F8381A87B263
:104BF000CDE7039CB94609F0F1F91A4B1B78FBB1DC
:104C0000194B1B884B451BD3184B1B68C01AB0F5BA
:104C1000FA7FC9D900220121404609F079F8114AEA
:104C200000231370C0E71249069A0A600BEB850552
:104C30000023D5F804018C801A4609F0A9FCA2E7EC
:104C40000A4B084A1860084BA3F800900123137020
:104C5000AAE7DDF80090039CCDE700BFD42F002029
:104C6000B2310020CA2F0020C82F0020C42F0020FE
:104C7000AC310020D02F0020F1B1114A1368DB4382
:104C800001D11846704710B582B00446184601910C
:104C900008F08EFE0A4A01231168834041EA030CA2
:104CA000C2F800C0019902EB800C1846CCF8041041
:104CB000CCF8844002B010BD0B461846704700BFC8
:104CC000D02F002058B110B50C4608F071FE1F28F7
:104CD00004D8034B03EB8003C3F8044110BD7047B5
:104CE000D02F0020034B643103EB81035A68024349
:104CF0005A607047D02F0020022826D8144A00F1AD
:104D0000600302EB830253680BB118467047114BE6
:104D100053F82030CBB130B583B00C460092054635
:104D2000984770B18188A1420BD30B49019051F88B
:104D3000251008F06DFEDDE900231846536003B02E
:104D400030BD0023184603B030BD0023DDE700BFAF
:104D5000D02F00205467060848670608D0B110B568
:104D6000D0F804E0BEF1000F11D090F800C0BCF103
:104D7000080F0CD8094C0CF16E0C54F82CC060458F
:104D800005D1DEF8003013B1BDE8104018474FF0F0
:104D9000FF3010BD4FF0FF30704700BFD02F002014
:104DA0002DE9F04F294FA5B0D7F890310390002B93
:104DB0003BD003780DF1100B07EB8303CDE9011213
:104DC000584680220021D3F894811BF090F83D686A
:104DD00015B300264FF00109284608F0E9FD09FA4D
:104DE00000F36A1E13EA080F05EA020512D007EB6A
:104DF0008000446874B1B246D6B15B464FEA860A79
:104E00000BEB860101E0994212D01A68A24203F12D
:104E10000403F8D1002DDFD100F05CFBD7F890013E
:104E20002B462A4603A909F0B3FB25B0BDE8F08F55
:104E3000EA44DDE90112E3682046013608F032FE5B
:104E4000F6B2CAF81040002DC6D1E5E7D02F0020F9
:104E5000082803D8024B6E3043F82010704700BF7B
:104E6000D02F002008289DBF6E30024B53F8200041
:104E700000207047D02F002000B58BB020220021E9
:104E800002A81BF034F8084901914FF4806C2823E4
:104E900001AA00210548CDE906C309F0A7F8044B93
:104EA00018600BB000BD00BFC82D0608B54E040841
:104EB0009C3700202DE9F04FB5B002F081FBB04CDB
:104EC000B04DB14F06460DF190080DF1380A0023A0
:104ED00023702B70032003F041F86421002800F0B8
:104EE000808203685B68002B00F07B829847002873
:104EF00000F0778201232B70002E00F0A482336A29
:104F0000002B08BF3B464FF00009A04A0093402108
:104F10009F4B40461AF0BAFE7389CDF80490B189D0
:104F200000914A464946304602F08CFBCDF83C9051
:104F3000D6F80A3010934FF0020B4046CDF8488067
:104F4000ADF844B0FBF714FC40F20113ADF84C008F
:104F50000FA88DF854B0ADF84E908DF83A90CDF87A
:104F600050A0ADF8383001F077F9032002F0F6FFD9
:104F70006421002800F03A8203685B68002B00F08F
:104F800035829847002800F031820122738901920E
:104F9000B289009200223046114602F053FB30469F
:104FA00002F014FB032002F0D9FF6421002800F076
:104FB000228203685B68002B00F01D82984700285E
:104FC00000F01982022273890192B28900920022B4
:104FD0003046114602F036FB304602F0F7FA032065
:104FE00002F0BCFF6421002800F00A8203685B68BD
:104FF000002B00F005829847002800F00182032270
:1050000073890192B289009200223046114602F063
:1050100019FB304602F0DAFA032002F09FFF642108
:10502000002800F0F28103685B68002B00F0ED813E
:105030009847002800F0E981072273890192B2891C
:10504000009200223046114602F0FCFA304602F08F
:10505000BDFA032002F082FF6421002800F0DA810B
:1050600003685B68002B00F0D5819847002800F0AA
:10507000D181042273890192B289009200223046C4
:10508000114602F0DFFA304602F0A0FA032002F0E7
:1050900065FF6421002800F0C28103685B68002B73
:1050A00000F0BD819847002800F0B981052273897E
:1050B0000192B289009200223046114602F0C2FAF3
:1050C000304602F083FA032002F048FF64210028F2
:1050D00000F0AA8103685B68002B00F0A581984767
:1050E000002800F0A181062273890192B289009202
:1050F00000223046114602F0A5FA304602F066FA68
:10510000032002F02BFF6421002800F09281036845
:105110005B68002B00F08D819847002800F08981A2
:105120004FF000097389CDF80490B2890092494686
:105130004A46304602F086FAD6F80A301793154BE5
:1051400019930CAB1B930223ADF860308DF87030CF
:105150001F231A9316A840F20113ADF83030CDF892
:1051600058908DF8329001F077F8484602F01EFE14
:10517000012002F021FE304602F028FA0CE000BFC8
:105180009937002098370020D82D0608182E0608D9
:1051900058280608442E0608032002F0DFFE64218A
:1051A000002800F04B8103685B68002B00F046810B
:1051B0009847002800F042814FF000097389CDF82C
:1051C0000490B289009249464A46304602F03AFAC3
:1051D000D6F80A301E93A24B20930DAB22930223E4
:1051E000ADF87C308DF88C301F2321931DA840F240
:1051F0000113ADF83430CDF874908DF8369001F08D
:105200002BF8012002F0D2FD484602F0D5FD3046D1
:1052100002F0DCF9032002F0A1FE6421002800F076
:10522000148103685B68002B00F00F819847002809
:1052300000F00B818B4B03901868DFF84CB208F03C
:1052400029FF00250821304602F0F6F973890195FF
:10525000B18900912A462946304602F0F3F93046DA
:1052600002F0B4F97389B289D44637461021384622
:105270008B42A9467C4F4FF6FF7A054601D38A42FE
:1052800009D27A498F4200F0E58017F8011F8B425E
:10529000F7D38A42F5D3764BCDF8249013F8093032
:1052A0000893744B04930691E9230A97CDF814C030
:1052B0000B95DF2B8DF83C3000F203814FF000039B
:1052C00001268DF83D30374600238DF83E304FF0F3
:1052D00000038DF83F3002F073F9B0F80A90858929
:1052E0000095002211464B460192029002F0AAF965
:1052F000069AB5FBF2F5EDB2012DB9FBF2F2D2B28E
:1053000038BF0125012A029B38BF012205FB02F2AA
:105310004FF0000183F8251002F1FF3900250792B4
:1053200009F1FF390BEB05003A460FA91FFA89F97D
:105330001AF037FE7319D1459DB2F1D100232493A1
:105340004D4B0599079A1B68029D16FB02F6D5F88E
:105350000A200B801B0C8DF83A30069B8DF8A2308A
:10536000089B8DF8A3300723ADF898300EAB05935A
:1053700029934046022325928DF8A830ADF8A0600D
:10538000CDF89CB000F068FF284602F01FF90398A2
:1053900002F00CFD40F6B836642E4FF0030035469F
:1053A00028BF642502F0DAFD00286FD003685B682F
:1053B0002946002B6AD09847002867D0294B1868E7
:1053C00008F078FE00F0C2FFBFF34F8F2B492C4B43
:1053D000CA6802F4E0621343CB60BFF34F8F00BF93
:1053E000FDE72378002B3FF475AD70E52378002BA3
:1053F0003FF4BBAD6BE52378002B3FF4D3AD66E5FE
:105400002378002B3FF4EBAD61E52378002B3FF4CC
:1054100003AE5CE52378002B3FF41BAE57E5237801
:10542000002B3FF433AE52E52378002B3FF44BAE14
:105430004DE52378002B3FF463AE48E52378002B3D
:105440003FF4AAAE43E50F4B5DE52378002B3FF414
:10545000E1AE3CE509F101012F4601F0030505E746
:10546000242E0608A43700207C6706087E670608FD
:1054700078670608E02D0608B41D060800ED00E078
:105480000400FA05D82D06089836002023780BB9B9
:10549000761B81D12378002B90D1049A039B3A4448
:1054A00083F00103DBB2039313780492002B7FF4A3
:1054B00000AF0B9DDDF814C06B89AA89DDE909975F
:1054C000DFE6049A53788DF83D300326937837460B
:1054D000FBE600BF014B01221A707047993700208C
:1054E00008B5042002F03AFD034620B103681B68AA
:1054F0000BB198470346074A0520137002F02EFDB2
:10550000034620B103681B680BB198470346024A63
:10551000137008BDA1370020A037002008B504484B
:1055200002F046FD4FF47A7008F0DAFDF7E700BFAD
:10553000A837002000B58BB002F042F801460E48B3
:1055400002F016FD0C480822042102F01FFD202263
:10555000002102A81AF0CBFC084901914FF4007C0D
:10556000082301AA00210648CDE906C308F03EFD44
:10557000044B18600BB000BDA8370020882E060829
:105580001D550408A437002000B589B003A8FCF716
:10559000EFF8E0B99DF80D209DF80C309DF80E1045
:1055A00013439DF80F200B43134310D0069B4FF677
:1055B000FE72013B93420AD805AA04A903A818F079
:1055C000EFFEBDF81800FBF70BFD09B000BD44F677
:1055D00087630093084A0949094842F23853FCF7A7
:1055E000F3F8054A0549064818F0DAFE42F2385049
:1055F000FBF7F6FC09B000BD806706088467060863
:105600008867060830B51C46037A15464268B3B170
:1056100003EB830C02EB4C03944603E00CF10A0C01
:105620009C450CD09CF800E08E45F7D19CF801E039
:10563000AE45F3D19CF802E0A645EFD16246039B4C
:1056400093F800C035B35C78807CCB1DDB1001FB88
:1056500003F358B3BE21ACF1810001FB00F0210639
:105660004CBF413C403C204492F90640918892F95D
:1056700007C000FB03F32144C3F30320B2F9084041
:10568000604401EB133200EB021054FA83F303EB96
:10569000002030BD4B08447C0733DB1001FB03F3D3
:1056A0006046002CE0D1ACF12000DDE7ACF1A100B8
:1056B0005E21A13C01FB0040D6E700BF00B50C4ACB
:1056C0008388014683B0106823B1B1F806C0BCF1ED
:1056D000000F02D14389B0F80CC00A7A01924A88BF
:1056E0000988CDF800C001F0ADFF03B000BD00BFD8
:1056F000BC3A00208388B3B1B0F806C0BCF1000FFB
:1057000011D0C2687AB100B585B001460192064851
:105710000A7A006802924A880988CDF800C001F030
:10572000C7FF05B000BD7047BC3A002008B501F0C6
:1057300047FF144B186003F059F9134A1060F0B199
:10574000026803469AB112698AB19047A0F50053E6
:105750000E4A0520136002F001FC60B103681B686B
:105760004BB1984738B10A4B0A4A1A6008BD5B68CA
:10577000A3F50053ECE7064B074A1A6008BD074B38
:10578000E6E700BFBC3A0020B83A0020B43A002057
:105790009400002098670608AC67060800E0FFFF49
:1057A000C368002B00F09C81018A002900F09881D9
:1057B0008288002A00F09481C288002A00F090813B
:1057C0002DE9F04F027E04464088022AA1B08246AD
:1057D00000F08781B1F5807F0A463F4828BF4FF42B
:1057E0008072194604921AF0DCFB6069A57C049A69
:1057F000002800F09F8390F802E0002D00F08881DF
:10580000354EAB46BEF1000F00F0368200238146D4
:105810009E4619466F08A846304610F803C0BCF1F2
:105820000A0F00F0EA81ACF120065F2E00F2F2814F
:1058300001339BB2BC46A5880EEB0C06AE4240F38A
:1058400003821F2900F2D6810DEB41060131A6F833
:1058500040E0C9B2E6469342DFD345461F29484699
:1058600000F2C8810DEB41032688A3F840E04B1CF1
:10587000DBB20A93B646D0B113FB0BF39BB246786A
:10588000012E00F0AD83022E0AD1B4F806C00CEB55
:105890000A06F61A5746B6B29C4588BF3746BA463E
:1058A0000378012B00F0AB83022B00F09282002AD8
:1058B00000F0A0816B0807930733DB10064E13FB43
:1058C0000BF30D930023CDE90B51CDE9042606938C
:1058D0001D46764671E000BFB4390020079AB4F83F
:1058E00004C0B218624508922BDD6269002A00F0FC
:1058F00018839078002800F01483069812780130FD
:105900000AEB0B06C0B2012A1FFA86FA0690268817
:1059100000F03783022A0DD10CEB06020A9F0C9E81
:10592000B84234BF014631460DEB4101B1F8401099
:10593000521A96B2E288524540F25C81079AB21838
:1059400008928DF83C30A34B1F68A7B13B6893B118
:105950005B6809937BB1A04B0B9918680FAB009360
:10596000E37C0022FFF74EFE9C4ABDF8343001462E
:105970003846099FB8470023DDF81C900193984BE7
:10598000CDF800B0186831464B46524601F05AFE39
:1059900093490868CDF800B0237A02938F4B0193A6
:1059A00031464B46524601F083FE0135BDF820607A
:1059B000ADB2049B9D4280F01D81059B5B5D0A2B6F
:1059C00000F0BE82A3F120025F2A87D904996A1CE5
:1059D0008A4280F2928203F17F01C9B27D2900F2EE
:1059E0008C82059911F802E0AEF14001C9B2BE29DE
:1059F00000F28382BEF17F0F00F07F820B99B4F832
:105A00000480711841452DDD6169002900F0118382
:105A100091F802C0BCF1000F00F00B83069E0978DC
:105A20000AEB0B0C0136F6B21FFA8CF70129069629
:105A3000BA46268800F0088302290FD10C980A9FE5
:105A400008EB0602069EBE4234BF3146014620A83E
:105A500000EB410131F8401C521A96B2E2885245DF
:105A600040F2C8808DF83C305A4B8DF83DE01F68FD
:105A7000D7B13B68C3B15B680893ABB1564BDDF857
:105A80002C8018680FAB0093E37C01224146FFF79E
:105A9000B9FD08F10703DB1013FB0BF301464F4A76
:105AA00038469BB2089FB8474D4FCDF800B0002351
:105AB0000193314638685B46524601F0C3FD3868B1
:105AC000CDF800B0237A0293444B019331465B46F4
:105AD00052465E44023501F0EBFDB6B2ADB268E766
